:101694002020202020005365742054696D653F008C
:1016A40057616974696E672038323636496E6974D9
:1016B400006279204C617A7572697400323032317B
:0616C4002E31322E33002E
:1016CA0006430017003B0037043F00000000023DBC
:1016DA00000002510000074A00000000000000015B
:1016EA004900023B000004370000000002330000FA
:0416FA0002350000B5
:1018310053877F759850438E04759CDC438E01431A
:071841008E10D2AFD2AC22E1
:0F189600758902E4F58CF58AC28DD2A9D28C2215
:0F18A500438920E4F58DF58BC28FD2ABC28E2222
:100C1900AE41AF427C007D3C120BB68C418D427FC8
:010C290003C7
:100C2A00EF147003020CCF147003020D1814700332
:100C3A00020D5624036003020D941217C17529028E
:100C4A00752A10AB44AA43E4FDFF12142F75311024
:100C5A007B3AE4FD7F1412119B752902752A10ABA9
:100C6A0046AA45E4FD7F1912142F7531107B3AE428
:100C7A00FD7F2912119B752902752A10AB48AA47D4
:100C8A00E4FD7F3812142F7B017D02E4FF1214A9C0
:100C9A007B027D027F101214A97B037D027F201242
:100CAA0014A9E4FB7D05FF1214A97B027D057F10C0
:100CBA001214A97B037D057F201214A97B04E4FD8D
:100CCA007F690214A9752902752A10AB44AA43E464
:100CDA00FDFF12142F7531107B3AE4FD7F141211B7
:100CEA009B752902752A10AB46AA45E4FD7F1912A5
:100CFA00142F7531107B3AE4FD7F2912119B752957
:100D0A0002752A10AB48AA47E4FD7F388079752915
:100D1A0002752A10AB40AA3F7D027F3212142F754A
:100D2A0031107B3A7D027F4212119B752902752A86
:100D3A0010AB42AA417D027F4B12142F7BFF7A1619
:100D4A007994752A107D057F370216547BFF7A162F
:100D5A007994752A107D027F371216547529027507
:100D6A002A10AB40AA3F7D057F3212142F7531102D
:100D7A007B3A7D057F4212119B752902752A10ABB9
:0B0D8A0042AA417D057F4B12142F226E
:1015F400E4F5241217C17BFF7A16799A752A107DB7
:10160400047F14121654752902752A10AB44AA4398
:10161400E4FDFF12142F7531107B3AE4FD7F1412A0
:10162400119B752902752A10AB46AA45E4FD7F1962
:1016340012142F7531107B3AE4FD7F2912119B752A
:101644002902752A10AB48AA47E4FD7F3802142FFB
:10151B007F03120C2A20B5317F0A7E001217FF20A1
:10152B00B52730B5FD0542E54270020541643C45E7
:10153B00417013C3E540943CE53F940050080540CF
:10154B00E5407002053F120C1920B6237F0A7E007E
:10155B001217FF20B61930B6FDD3E5429400E541D2
:10156B0094004008E542154270021541120C1920F7
:10157B00B7A37F0A7E001217FF20B79930B7FD2261
:100FD7001215F420B5527F0A7E001217FF20B5487C
:100FE70030B5FD0548E54870020547643C45477044
:100FF7000CF547F5480546E54670020545E54664A4
:101007003C4545700CF545F5460544E54470020539
:1010170043E54464184543700CF543F544F545F53D
:1010270046F547F5481215F420B66E7F0A7E001282
:1010370017FF20B66430B6FDE5444543701DE5460D
:1010470045457017E54845477011F543754417F551
:101057004575463BF54775483C8033E54645457041
:101067001AE54845477014F54775483CF5457546F8
:101077003BE5441544700215438013E54845477026
:101087000DF54775483CE546154670021545E54898
:101097001548700215471215F430B703020FDA7FAF
:1010A7000A7E001217FF30B703020FDA30B7FDE4EC
:0410B700FF020C2AFE
:03000B0002125985
:10125900C0E0C0F0C083C082C0D075D000C000C05B
:0D12690001C002C003C004C005C006C007DC
:101276000534E53470020533C3941AE533940E4001
:101286005E7533007534000548E54870020547640D
:101296003C454770080546E54670020545E5466447
:1012A6003C454570080544E54470020543AE43AF2E
:1012B600447C007D18120BB68C438D44AE45AF4678
:1012C6007C007D3C120BB68C458D46AE47AF487C04
:0F12D600007D3C120BB68C478D487F01120C2A0D
:1012E500D007D006D005D004D003D002D001D0005D
:0B12F500D0D0D082D083D0F0D0E03207
:03001B00020ED9F9
:100ED900C0E0C0F0C083C082C0D075D000C000C0DF
:0D0EE90001C002C003C004C005C006C00760
:100EF6000536E53670020535C3941AE535940E506D
:100F060003020FBC753500753600E5524551703742
:100F16007F02120C2A0542E54270020541643C45F7
:100F2600417013C3E540943CE53F940050080540EA
:100F3600E5407002053FAE41AF427C007D3C120B9E
:100F4600B68C418D42806FE552640145517067E56C
:100F560040453F703FE54245417039D280AE45AFCE
:100F660046FC7D3C120BA4AA06AB07AE43AF447CFD
:100F76000E7D10120BA4EF2BFFEE3AFEE5482FFD77
:100F8600E5473EFCE4120AF48F3A8E398D388C37E9
:100F9600C28E801DE5424541700FF54175423BE525
:100FA6004015407002153F8008E542154270021553
:060FB600417F03120C2A2A
:100FBC00D007D006D005D004D003D002D001D00089
:0B0FCC00D0D0D082D083D0F0D0E03233
:03002300021300C5
:10130000C0E0C0F0C0D075D000C000C004C005C0AF
:1013100006C007C2ACC298859949053CE53C7002FD
:10132000053B14244AF8A649E53C6406453B706039
:10133000F53BF53CE54A24D0FFE434FFFE7C007D1C
:101340000A120BA4E54B24D0FDEC34FFCD2FF5445D
:10135000ED3EF543E54C24D0FFE434FFFE7D0A1258
:101360000BA4E54D24D0FDEC34FFCD2FF546ED3E2A
:10137000F545E54E24D0FFE434FFFE7D0A120BA4B0
:10138000E54F24D0FDEC34FFCD2FF548ED3EF54779
:10139000D2ACD007D006D005D004D000D0D0D0F049
:0313A000D0E03268
:100D95001210BB1217C17BFF7A1679A4752A10E4CD
:100DA500FDFF1216547BFF7A1679B5752A107D0260
:100DB500E4FF1216547B047D037F641214A97BFFA4
:100DC5007A1679C0752A107D04E4FF1216543097FF
:100DD500FD1218312097FD1218961218A5D2AFC230
:100DE500807594FFE4FF120C2A20B5527F0A7E001D
:100DF5001217FF20B548E53E453D701CF551F552EB
:100E0500F53FF540F541F542D28EE53E453D70048E
:100E15007F0180227F00801EE53E6401453D701BF9
:100E2500F53FF540F541F542C28EE53E453D70047E
:100E35007F0180027F00753D008F3E30B5FD20B6F5
:100E4500217F0A7E001217FF20B61730B6FD7551B7
:100E550000755201E4F53FF540F541F54212151BC9
:100E6500D28EAE45AF467C007D3C120BA4AA06ABE4
:100E750007AE43AF447C0E7D10120BA4EF2BFFEEA3
:100E85003AFEE5482FFDE5473EFCE4120AF4AB3A8D
:100E9500AA39A938A837120981E4FBFA79C0784044
:100EA500120A766002500BC280E4F53AF539F5383E
:100EB500F53730B703020DEE7F0A7E001217FF30BB
:100EC500B703020DEE30B7FDC28CC28E120FD7D21A
:040ED5008C020DEE90
:100026000000000000000000002F00000000070094
:10003600070000147F147F1400242A7F2A1200620E
:1000460064081323003649552250000005030000BA
:1000560000001C224100000041221C000014083E42
:1000660008140008083E0808000000A06000000808
:10007600080808080000606000000020100804025C
:10008600003E5149453E0000427F4000004261511A
:100096004946002141454B31001814127F100027B4
:1000A60045454539003C4A49493000017109050377
:1000B60000364949493600064949291E00003636A8
:1000C600000000005636000000081422410000140B
:1000D60014141414000041221408000201510906E8
:1000E60000324959513E007C1211127C007F494969
:1000F6004936003E41414122007F4141221C007F9A
:1001060049494941007F09090901003E4149497AA7
:10011600007F0808087F0000417F41000020404121
:100126003F01007F08142241007F40404040007F8D
:10013600020C027F007F0408107F003E4141413ED1
:10014600007F09090906003E4151215E007F091919
:1001560029460046494949310001017F0101003F16
:100166004040403F001F2040201F003F4038403F96
:1001760000631408146300070870080700615149FA
:10018600454300007F41410000552A552A5500008D
:1001960041417F000004020102040040404040400B
:1001A600000001020400002054545478007F4844A3
:1001B600443800384444442000384444487F0038DA
:1001C6005454541800087E0901020018A4A4A47C03
:1001D600007F080404780000447D400000408084CD
:1001E6007D00007F102844000000417F4000007C15
:1001F60004180478007C0804047800384444443821
:1002060000FC242424180018242418FC007C08046C
:10021600040800485454542000043F444020003C45
:100226004040207C001C2040201C003C4030403CCC
:10023600004428102844001CA0A0A07C004464545C
:100246004C441414141414140000000000000000A0
:100256000000000000000000000000F800000000A0
:10026600000000333000000000100C06100C0600E1
:10027600000000000000000040C07840C078400048
:10028600043F04043F040400007088FC08300000AA
:10029600001820FF211E0000F008F000E018000002
:1002A60000211C031E211E0000F0088870000000BB
:1002B6001E2123241927211010160E00000000000D
:1002C6000000000000000000000000E0180402002A
:1002D600000000071820400000020418E00000009B
:1002E6000040201807000000404080F08040400099
:1002F6000202010F01020200000000F000000000EF
:100306000101011F010101000000000000000000C2
:1003160080B0700000000000000000000000000037
:1003260000010101010101010000000000000000C0
:10033600003030000000000000000000806018045B
:10034600006018060100000000E010080810E00038
:10035600000F102020100F00001010F80000000001
:100366000020203F20200000007008080888700048
:1003760000302824222130000030088888483000C8
:100386000018202020110E000000C02010F80000E8
:1003960000070424243F240000F808888808080081
:1003A6000019212020110E0000E010888818000096
:1003B600000F112020110E0000380808C838080068
:1003C6000000003F000000000070880808887000E8
:1003D600001C222121221C0000E010080810E00069
:1003E6000000312222110F00000000C0C0000000F2
:1003F6000000003030000000000000800000000017
:10040600000080600000000000008040201008000E
:1004160000010204081020004040404040404000D7
:1004260004040404040404000008102040800000B2
:100436000020100804020100007048080808F000B7
:100446000000003036010000C030C828E810E00087
:100456000718272423140B000000C038E000000012
:10046600203C23020227382008F88888887000007C
:10047600203F202020110E00C03008080808380050
:10048600071820202010080008F808080810E000C7
:10049600203F202020100F0008F88888E808100068
:1004A600203F20202320180008F88888E80810003C
:1004B600203F200003000000C03008080838000074
:1004C60007182020221E020008F808000008F80875
:1004D600203F210101213F20000808F808080000FC
:1004E6000020203F2020000000000808F80808002F
:1004F600C08080807F00000008F888C028180800A7
:10050600203F20012638200008F8080000000000DF
:10051600203F20202020300008F8F800F8F80800D6
:10052600203F003F003F200008F830C00008F808D0
:10053600203F200007183F00E01008080810E000E0
:100546000F10202020100F0008F808080808F000F7
:10055600203F210101010000E01008080810E0001A
:100566000F18242438504F0008F8888888887000AF
:10057600203F2000030C302000708808080838004F
:100586000038202121221C00180808F80808180045
:100596000000203F2000000008F808000008F808C6
:1005A600001F202020201F000878880000C8380877
:1005B600000007380E010000F80800F80008F800EF
:1005C600033C0700073C0300081868808068180889
:1005D60020302C03032C30200838C800C838080007
:1005E6000000203F2000000010080808C838080056
:1005F6002038262120201800000000FE02020200FA
:100606000000007F40404000000C30C000000000A9
:10061600000000010638C00000020202FE000000D1
:10062600004040407F000000000004020202040077
:1006360000000000000000000000000000000000B4
:10064600808080808080808000020204000000009C
:100656000000000000000000000080808080000094
:100666000019242222223F2008F800808000000082
:10067600003F112020110E00000000808080000045
:10068600000E112020201100000000808088F80054
:10069600000E112020103F20000080808080000086
:1006A600001F222222221300008080F088888818EA
:1006B6000020203F202000000000808080808000F5
:1006C600006B94949493600008F80080808000008A
:1006D600203F210000203F20008098980000000065
:1006E6000020203F20200000000000809898000095
:1006F60000C08080807F000008F8000080808000B5
:10070600203F24022D302000000808F800000000D9
:100716000020203F20200000808080808080800094
:10072600203F20003F20003F808000808080000026
:10073600203F210000203F200000808080800000B4
:10074600001F202020201F008080008080000000E5
:1007560080FFA12020110E00000000808080800014
:10076600000E112020A0FF80808080008080800005
:1007760020203F2120000100000080808080800032
:100786000033242424241900008080E080800000A7
:100796000000001F202000008080000000808000F4
:1007A600001F202020103F20808080000080808055
:1007B60000010E30080601008080008000808080E5
:1007C6000F300C030C300F0000808000808080000A
:1007D6000020312E0E312000808080000080808035
:1007E60080818E70180601000080808080808000E5
:1007F6000021302C2221300000000000807C020203
:1008060000000000003F404000000000FF00000024
:1008160000000000FF0000000002027C80000000D3
:100826000040403F000000000006010102020404EF
:100836000000000000000000100C4444444445C67B
:100846004444444444140C0000000000000000002E
:1008560000000000000000008040201E2040407F75
:1008660044444444444040000000000000000000AE
:100876000000000000000000404042CC0040404024
:1008860040FF4040404040000000000000000000E3
:1008960000000000000000000000007F20100000A3
:1008A60000FF000000000000000000000000000043
:1008B600000000000000000000FC848484FC00109E
:1008C60010101010FF1010000000000000000000C3
:1008D6000000000000000000003F1010103F000064
:1008E600010640807F0000000000000000000000BC
:1008F600000000000000000080809E9292929EE020
:10090600809EB2D2929E800000000000000000008F
:1009160000000000000000000808F4949292F10024
:1009260001F2929494F80800000000000000000014
:100936000000000000000000FF0000FF00000E4362
:1009460041494969DF080800000000000000000076
:100956000000000000000000030C12274C100818CD
:100966001018080C3F2020000000000000000000C6
:08097600000000000000000079
:1017FF00EF4E60157D087C07ED1DAA0470011C4A91
:09180F0070F6EF1F70EA1E80E77D
:0118180022AD
:09000E00D290D291C291C290225D
:07000300D290C291D29122BC
:0B18860012175E121891AF0412175EDB
:05189100D290C290227C
:07175700AC0712000E7F78C1
:10175E00C290E4FEAD07530580BD8004D291800295
:0E176E00C291EF25E0FFD290C2900EBE08E6B9
:01177C00224A
:0E18B400121757121891E4FF12188602000353
:0E18C2001217571218917F4012188602000369
:1016FF00E924B0FFE433FEE4FDFC12171AE4FDFC0D
:0B170F00FFFE12171A7F10E4FDFCFE25
:10171A00AB07AA06ED4C60030218C2AF031218B455
:01172A00229C
:02177D008F5E7D
:10177F00E4F91216FFE4F55FAF5E7E007D017C0099
:10178F0012171A055FE55FC3948040EC09B908E2B0
:01179F002227
:1017E100D3EF9400EE940040147D657C18ED1D70DC
:0D17F100011CED4C70F7EF1F70E61E80E349
:0117FE0022C8
:10185F00EF1FAA0670011E4A600BE4FDEDC3947BD7
:05186F0050EE0D80F7B2
:011874002251
:10172B00A907ED24B0FFE433FEE4FDFC12171AE920
:10173B0054F0C4540F7E004410FFE4FDFC12171A42
:0C174B00E9540FFF7E00E4FDFC02171AB9
:101848007F8D121716E4FDFC7F14FE12171AE4FDB3
:07185800FC7FAFFE02171A2E
:10187500E4FDFC7F8D121710E4FDFC7FAEFE021720
:011885001A48
:1017C100E4F91216FFE4F5257D017C00E4FFFE1229
:0F17D100171A0525E525C3948040ED09B908E3F3
:0117E00022E6
:1017A000E4F91216FFE4F5607D017C007F017E0004
:1017B00012171A0560E560C3948040EC09B908E28D
:0117C0002206
:04119B008F2E8D2FD7
:10119F00E4F532F9EB24E0F532E52ED3947F4007E6
:1011AF00E4F52E052F052FE53164107069AD2FAFD3
:1011BF002E12172BE4F975F010E532A429F582E40D
:1011CF0035F0F583E582244EF582E5833402F5830D
:1011DF00E493FF7E007D017C0012171A09B908D62F
:1011EF00E52F04FDAF2E12172BE4F975F010E53241
:1011FF00A429F582E435F0F583E5822456F582E5DE
:10120F00833402F583E493FF7E007D017C00121787
:10121F001A09B908D622AD2FAF2E12172BE4F97584
:10122F00F006E532A42426F582E5F03400F583E5D7
:10123F008229F582E43583F583E493FF7E007D01F7
:09124F007C0012171A09B906D639
:011258002273
:041819008F2EA90560
:10181D007F017E00AD0119ED6009AD2E7C00120B2C
:03182D00A480F1A3
:011830002295
:08142F008F258D268A278B28EA
:10143700E4F52DF52BE52BC395295065C3E52995D3
:101447002B14FD7F0A121819AC27AD28CFCDCFCEAC
:10145700CCCE120BB67C007D0A120BB68D2CE52D77
:101467007023E52914FFE52BC39F5019E52C701253
:10147700E52AC313852BF0A42525FF852A317B2078
:101487008016752D01E52AC313852BF0A42525FFAA
:10149700E52C2430FB852A31AD2612119B052B80C4
:0114A70094B0
:0114A8002221
:0A1654008F258D268B278A2889290F
:10165E00E4F52BAB27AA28A929852B8275830012C6
:10166E000B77FB6020852A31AD26AF2512119B74B6
:10167E00082525F525D394784007E4F5250526059C
:05168E0026052B80CEB3
:011693002234
:0614A9008F248D258B2627
:1014AF00E4F52712172BE4F975F040E526A4243E46
:1014BF00F582E5F03408F583E58229F582E435837A
:1014CF00F583E493FF7E007D017C0012171A052738
:1014DF0009B910D4E52504FDAF2412172BE4F975D3
:1014EF00F040E526A4245EF582E5F03408F583E5A7
:1014FF008229F582E43583F583E493FF7E007D0135
:0B150F007C0012171A052709B910D440
:01151A0022AE
:04158B008F538B559A
:10158F00E4F55AF55BE5565407700BE55613131344
:10159F00541FF55D800AE556131313541F04F55DB0
:1015AF008D5DE55DC39556503BAD5DAF5312172B67
:1015BF0085535CE55CC395555026AB57AA58A9597E
:1015CF00055BE55BAE5A7002055A14F5828E8312E5
:1015DF000B77FF7E007D017C0012171A055C80D30C
:0415EF00055D80BE58
:0115F30022D5
:1010BB00E4FDFC7FAEFE121709E4FDFC7F40FE123F
:1010CB00171AE4FDFC7FB0FE12171AE4FDFC7F81BA
:1010DB00FE12171AE4FDFC7FFFFE12171AE4FDFC4B
:1010EB007FA1FE12171AE4FDFC7FA6FE12171AE46D
:1010FB00FDFC7FA8FE12171AE4FDFC7F3FFE1217C2
:10110B001AE4FDFC7FC8FE12171AE4FDFC7FD3FE28
:10111B0012171AE4FDFCFFFE12171AE4FDFC7FD533
:10112B00FE12171AE4FDFC7F80FE12171AE4FDFC79
:10113B007FD8FE12171AE4FDFC7F05FE12171AE486
:10114B00FDFC7FD9FE12171AE4FDFC7FF1FE12178E
:10115B001AE4FDFC7FDAFE12171AE4FDFC7F12FE87
:10116B0012171AE4FDFC7FDBFE12171AE4FDFC7F5D
:10117B0030FE12171AE4FDFC7F8DFE12171AE4FDE8
:10118B00FC7F14FE12171AE4FDFC7FAFFE02171A48
:10097E00020B62E86480F8E933E83360110460F03A
:10098E00ED33EC337009E8FCE9FDEAFEEBFF2204DF
:10099E0060DED3EB9FEA9EE99DE8C2E78CF0C2F7DA
:1009AE0095F0400CE8CCF8E9CDF9EACEFAEBCFFBA6
:1009BE00120B2D85D0F05804700320D5B3E80470C7
:1009CE00075002B2D5020B6C92D5EC0460F7E4CC62
:1009DE00C0E0C398F8603B94186008400DD0E0FB6F
:1009EE00020B44E4FBFAC9FC8028E830E406E4C9B3
:1009FE00FBE4CAFCE830E305E4C9CACBFCE85407C3
:100A0E006010F8C3E913F9EA13FAEB13FBEC13FCCD
:100A1E00D8F130F52FC3E49CFCEF9BFFEE9AFEED70
:100A2E0099FDD0E0FBEF4E4D4C701222DB03020B12
:100A3E0069EC2CFCEF33FFEE33FEED33FDED30E7CA
:100A4E00EB020B44EF2BFFEE3AFEED39FDD0E0FB4F
:100A5E0050130BBB0003020B6CED13FDEE13FEEFF8
:080A6E0013FFEC13FC020B4422
:100A760074F8CC6480CCC86480C8F58204604FC327
:100A8600EB9FF5F0EA9E42F0E99D42F0E89C45F0C6
:100A9600603C501DE5825FFFE582D313CB5BCBF450
:100AA6002B5582FB50280ABA002409B90020088079
:100AB6001DE5825BFBE582D313CF5FCFF4C3132F13
:100AC6005582FF50090EBE00050DBD00010CC3EB9B
:100AD6009FF5F0EA9E42F0E99D42F0E89C45F06001
:090AE60007CC4820E701B3EC2223
:100AEF0075F020800E75F010800575F0087D007E82
:100AFF00007F003392D530D503120C0BEC3340102E
:100B0F00EF33FFEE33FEED33FDEC33FCD5F0ED228A
:0E0B1F00E5F0247EA2D513CC92E7CDCEFF22C6
:100B2D00E9D2E7C933E833F892D5EDD2E7CD33EC0E
:070B3D0033FC5002B2D52287
:100B4400EC30E7100FBF000C0EBE00080DBD000412
:100B54000BEB6014A2D5EB13FCED92E7FD2274FFBE
:100B6400FCFDFEFF22E480F8A2D574FF13FC7D8017
:030B7400E480EF2B
:030000000213A345
:0C13A300787FE4F6D8FD7581600213EA43
:100B7700BB010CE58229F582E5833AF583E0225033
:100B870006E92582F8E622BBFE06E92582F8E2227D
:0D0B9700E58229F582E5833AF583E4932297
:100BA400EF8DF0A4A8F0CF8CF0A428CE8DF0A42E65
:020BB400FE221F
:100BB600BC000BBE0029EF8DF084FFADF022E4CC23
:100BC600F875F008EF2FFFEE33FEEC33FCEE9DECEC
:100BD600984005FCEE9DFE0FD5F0E9E4CEFD22ED32
:100BE600F8F5F0EE8420D21CFEADF075F008EF2F7C
:100BF600FFED33FD4007985006D5F0F222C398FD6D
:050C06000FD5F0EA2209
:0E0C0B00C3E49FFFE49EFEE49DFDE49CFC22FA
:1013AF00020D95E493A3F8E493A34003F68001F2B2
:1013BF0008DFF48029E493A3F85407240CC8C3333F
:1013CF00C4540F4420C8834004F456800146F6DF0E
:1013DF00E4800B01020408102040809016CAE47EBE
:1013EF00019360BCA3FF543F30E509541FFEE49303
:1013FF00A360010ECF54C025E060A840B8E493A3CA
:10140F00FAE493A3F8E493A3C8C582C8CAC583CAF4
:10141F00F0A3C8C582C8CAC583CADFE9DEE780BEAC
:0116FE0000EB
:00000001FF
